:100000000C94CE000C9400000C9400000C940000A2
:100010000C9400000C9400000C9400000C94000060
:100020000C9400000C9400000C9400000C94000050
:100030000C9400000C9400000C9400000C94000040
:100040000C9400000C9400000C9400000C94000030
:040050000C9400000C
:10019C00BFE5BDBFB8E0BEBF0E940001C1DFD7DF25
:0601AC00E0DFFECFFFCFF3
:10012C00B1B3BB7FB1BBB3E3B9B9B0E0B0BDD2DF03
:10013C0025E01FE002EF0A95F1F71A95E1F72A95F1
:04014C00D1F708954A
:1000E000B2E4B0938200B0E0B0938300BAE2B09380
:1000F0008400B0E0B0938500BDE3B0937E00B0E033
:10010000B0937F00BEE4B0938000B0E0B093810074
:10011000B1B3BE7FB1BBB1B3B260B1BB0AB10861CC
:080120000AB9B6E8B0BD08956C
:10015A002F923F92B2EB2B2EB1E03B2EE0DF3F9085
:04016A002F90089535
:0401280097DF0895C0
:100058008101085E1F4FF8013E96059115910093A6
:08006800860010938700089543
:10016E002F923F92B0DF002329F0B0E62B2EB0E0A5
:10017E003B2E92DF29E01EE105EE0A95F1F71A9566
:0E018E00E1F72A95D1F700003F902F900895D9
:0C00D400E0918600F091870009950895E6
:0A00700000B2002702FC039508957A
:040054000CB108954E
:0A007A000BB0002707FC0395089562
:0A009C000BB0002706FC0395089541
:1000A60010E0F1010081202F022F003079F03F92FD
:1000B6002F92202EE4DF2F903F90012F0F5F102FFD
:0E00C600E02FF0E0E20DF31D0081EFCF089572
:10008400BBB1B5FD01C0FCCFBBB1B6FF03C0BBB172
:08009400B064BBB92CB808955B
:0A01500005900D920197E1F7089564
:10020000A0E6B0E0E2EEF1E08EE190E00E94A8000E
:0202100008954F
:1001B200000000000000000000000000000000003D
:1001C200000000000000000000000000000000002D
:1001D20000000000000038000000000000000000E5
:1001E20054616D70657220636C69636B2069732062
:0E01F200696E204F4E2073746174650D0A0013
:00000001FF
