:10000000FC7F00200D0D0000C50C0000C50C000099
:10001000C50C0000C50C0000C50C0000C50C00009C
:10002000C50C0000C50C0000C50C0000C50C00008C
:10003000C50C0000C50C0000C50C0000C50C00007C
:10004000C50C0000C50C0000C50C0000C50C00006C
:100D0C0000F010F8FFF7DCFF00F03AF9FFF7EEFF08
:100D1C0000F0F6F8FFF78AFFFFF7A4FFFFF76AFF72
:040D2C00FCE7FEE7FB
:100BEC0081B01CF8019B0BF8019BBBEB0A0FF8D1F1
:040BFC0001B070478D
:100C880081B04FF000094FF0000CBDEB0A0F04DCF7
:100C9800BDEB0B0F01DBD446EA464BF8049BBBEBDC
:100CA8000A0FFAD1BCEB0A0F05DDE246D9F800B00D
:0A0CB8000BF1040BF1E701B07047E7
:100C380081B0CDF800E010210A48FFF7BDFF42F26D
:100C48008050FFF755FF4EF67F67C0F2360700BFAA
:100C580000BF7F1EFDD100BF00BF00BFDDF800E070
:080C680001B0704700D0054007
:100BC00081B0CDF800E0002440F240031BB240F2B7
:100BD000001212B21A4393B2002210B4FFF7A8FD1C
:0A0BE00001B0DDF800E001B070473D
:1007300082B0CDF800E01FFA83F9CBB2D5B29DF8B4
:100740000870CF4C00EA0404A0462046FFF78EFD57
:10075000CC4CA54207D108F58066DD43EDB2346884
:100760002C40346007E0C84CA54204D108F58065F0
:100770002C681C432C6040F2010409EA0404A4B272
:100780002CB108F5A2652C681C432C6006E008F526
:10079000A266DD43EDB234682C40346040F20204BE
:1007A00009EA0404A4B22CB108F214552C681C43C5
:1007B0002C6006E008F21456DD43EDB234682C409C
:1007C000346040F2080409EA0404A4B22CB108F22F
:1007D0000C552C681C432C6006E008F20C56DD43D7
:1007E000EDB234682C40346040F2100409EA04048D
:1007F000A4B22CB108F5A0652C681C432C6006E05F
:1008000008F5A066DD43EDB234682C40346040F258
:10081000200409EA0404A4B22CB108F204552C689F
:100820001C432C6006E008F20456DD43EDB2346848
:100830002C40346040F2400409EA0404A4B22CB114
:1008400008F5A1652C681C432C6006E008F5A1663C
:10085000DD43EDB234682C40346040F2800409EA94
:100860000404A4B274B140F2400409EA0404A4B23E
:100870002CB108F5A3652C681C432C6001E0012015
:10088000F9E006E008F5A366DD43EDB234682C40DC
:10089000346040F2001409EA0404A4B22CB108F256
:1008A0001C552C681C432C6006E008F21C56DD43E6
:1008B000EDB234682C40346040F2002409EA0404AC
:1008C000A4B2002C32D0714CA04540F2000500D0FB
:1008D00001256F4CA04540F2000400D001242540C2
:1008E0006C4CA04540F2000400D0012425406A4C25
:1008F000A04540F2000400D001242540674CA045EB
:1009000040F2000400D001242540654CA04540F28F
:10091000000400D0012405EA04040CB10120AAE07F
:1009200008F5A5652C681C432C6031E0574CA045A8
:1009300040F2000500D10125554CA04540F20004CD
:1009400000D101242543534CA04540F2000400D1BE
:1009500001242543504CA04540F2000400D101245D
:1009600025434E4CA04540F2000400D1012425430C
:100970004B4CA04540F2000400D1012445EA040498
:1009800034B108F5A566DD43EDB234682C4034601F
:1009900040F6000409EA0404A4B22CB108F5A665E7
:1009A0002C681C432C6006E008F5A666DD43EDB21A
:1009B00034682C40346040F2004409EA0404A4B2D4
:1009C0002CB108F584652C681C432C6006E008F502
:1009D0008466DD43EDB234682C4034600FB90020EA
:1009E00049E00B2F01D9012045E0002100200191B1
:1009F000DAB2C3B24046F9B2019F082B12D222FAF2
:100A000003F4E4B204F00104E4B244B19D002DB259
:100A10004FF00F04AC4047EA04052F46FFE75B1C8C
:100A2000DBB2EAE700F22C56FD4334682C40346018
:100A3000002600238DF80420CAB29DF80410082B6C
:100A400013D221FA03F4E4B204F00104E4B24CB18D
:100A5000D5B29C0024B205FA04F446EA0404254603
:100A60002E46FFE75B1CDBB2E9E700F22C552C6851
:100A700034432C600020DDF800E002B0704700BF76
:100A800000F0FFFF000000000100000000700040C7
:100A9000004002400050004000B0054000C005404A
:040AA000009005407D
:10026C0081B0874900EA010108463BE185490968EC
:10027C0041F0010283490A6083490A686FF0010169
:10028C000A4081490A6089E17E49096841F001020E
:10029C007C490A607C49096841F001027A490A608C
:1002AC007CE17849096841F0020276490A60764996
:1002BC000A686FF002010A4073490A606EE17149E5
:1002CC00096841F002026F490A606F49096841F000
:1002DC0002026D490A6061E16A49096841F0040251
:1002EC0068490A6068490A686FF004010A40664967
:1002FC000A6053E16349096841F0040261490A60EC
:10030C006149096841F004025F490A6046E15D49B0
:10031C00096841F008025B490A605B490A686FF0A2
:10032C0008010A4058490A6038E15649096841F009
:10033C00080254490A605449096841F008025249BC
:10034C000A602BE14F49096841F010024D490A60DF
:10035C004D490A686FF010010A404B490A601DE1D3
:10036C004849096841F0100246490A604649096843
:10037C0041F0100244490A6010E14249096841F019
:10038C00200240490A6040490A686FF020010A4087
:10039C003D490A6002E13B49096841F020023949B4
:1003AC000A603949096841F0200237490A60F5E0D2
:1003BC003449096841F0400232490A6032490A68FE
:1003CC006FF040010A4030490A60E7E02D490968A6
:1003DC0041F040022B490A602B49096841F0400268
:1003EC0029490A60DAE02749096841F08002254969
:1003FC000A602549096801F07F0223490A60CDE0B3
:10040C002049096841F080021E490A601E490968AA
:10041C0041F080021C490A60C0E01A49096841F4A5
:10042C00807218490A6018490A686FF480710A4092
:10043C0015490A60B2E01349096841F48072114908
:10044C000A601149096841F480720F490A60A5E0FD
:10045C000E49096841F400720C490A600A4909689E
:10046C0041F4007208490A6098E00849096841F4AF
:10047C00806206490A600449096841F4806207E019
:10048C0000F0FFFF08E10F406CE00F4008E60F4062
:10049C0043490A6082E04349096841F400624149DA
:1004AC000A603F49096841F400623D490A6075E001
:1004BC003C49096841F480523A490A603849096854
:1004CC0041F4805236490A6068E03649096841F4C3
:1004DC00005234490A603249096841F400523049EB
:1004EC000A605BE0B0F1402F3FF4C0AE2E49884269
:1004FC003FF4CAAE2D4988423FF4D3AE2C49884212
:10050C003FF4DDAE2B4988423FF4E6AE2A498842DF
:10051C003FF4F0AE294988423FF4F9AE28498842AD
:10052C003FF403AF274988423FF40CAF2649884279
:10053C003FF416AF254988423FF41FAF2449884247
:10054C003FF429AF234988423FF432AF2249884215
:10055C003FF43CAF214988423FF445AF20498842E3
:10056C003FF44EAF1F4988423FF457AF1E498842B3
:10057C003FF461AF1D4988423FF46AAF1C49884281
:10058C003FF473AF1B4988423FF485AF1A49884248
:10059C003FF48EAF194988423FF497AF01B07047D2
:1005AC006CE00F4008E60F40008005400050004012
:1005BC00009005400060004000A005400070004025
:1005CC0000B005400040024000C005400050024011
:1005DC0000D005400060024000E005400070024081
:1005EC0000F0054000D0034000000640001006401B
:1005FC0000200640003006400040064000500640F7
:00060C00EE
:100AF80082B0CDF800E00346214A22490A60224A22
:100B080022490A60224A23490A60234A23490A6083
:100B180001932348FFF78EFD019B012252B2214920
:100B28000A6000BF00BF00BFFFF772FDFFF76AFD54
:100B380040F2E83100FB01F210461901914205D953
:100B4800012252B218490A605A0804E0002252B23F
:100B580015490A601A46C100B1FBF2F1491C4B085D
:100B68009A0912490A6003F03F0211490A6060229B
:100B780010490A60FFF7BCFDDDF800E002B07047DD
:100B8800DD06000028000020FFFFFFFF2C000020EA
:100B9800FFFFFFFF30000020FFFFFFFF34000020B1
:100BA800B00D00008820FC4314061C4224E00040DD
:080BB80028E000402CE00040A1
:10063C0081B0CDF800E040F2000B82460AF1D801FF
:10064C0009788B4539D20C210BFB01F10AEB010126
:10065C008C460CF108010978A9B90CF1080109784C
:10066C00CCB20CF1060109888BB20CF104010978AB
:10067C00CAB2DCF800100846D1B2002210B400F067
:10068C0051F801B014E00CF108010978CCB20CF16E
:10069C00060109888BB20CF104010978CAB2DCF8A6
:1006AC0000100846D1B20F2210B400F03BF801B094
:1006BC000BF1010B5FFA8BFBC0E7DDF800E001B03A
:0206CC00704775
:1006180081B0002149B204480160044801600448DF
:10062800016001B0704700BF00061C4220061C4252
:0406380024061C4236
:0C060C0001480068704700BF200000207B
:1006F80081B0012149B204480160044801600448FE
:10070800016001B0704700BF00061C4220061C4271
:0407180024061C4255
:100C700081B0CDF800E00348FFF714FFDDF800E095
:080C800001B070478C0E00006A
:100AA40081B0CDF800E0FFF737FEDDF800E001B0DB
:020AB400704789
:10071C0000F230011C310A6801490A60704700BFC1
:04072C003800002071
:100C000081B0CDF800E0FFF757FF10B10848FFF7BB
:100C10005FFF4DF6FF47C0F26D077F1EFDD100BF9D
:100C200000BF00BF00BF00BFDDF800E001B07047AB
:040C300000000020A0
:100AB80081B0CDF800E0034C2468A047DDF800E0E1
:080AC80001B070473800002066
:0C06D00001480068704700BF907FBA42EC
:100AD00081B0CDF800E002460023107840B1FFF766
:100AE000FDFD591CC9B2CBB251180978C8B2F5E75F
:080AF000DDF800E001B07047E1
:1006DC0081B00449096801B1FBE70349086001B026
:0C06EC00704700BF14031C4200E00040F7
:100D300081B01A4A1A4B01211A4801601A4800680A
:100D400000F4804030B103F480411648016043F460
:100D50008043FFE702F0010068B9144801686FF0B2
:100D6000010001401148016040F6D507C0F20207BA
:100D70007F1EFDD100BF6FF0020002EA00010B48A8
:100D800001600948036040F21007C0F200077F1EAF
:100D9000FDD100BF0548026001B07047513D80079A
:100DA0001068C0072400002070E00F4060E00F4092
:000DB00043
:100CF80081B002490248016001B07047C0D40100C8
:040D080020000020A7
:080CC40081B0FEE701B07047AA
:100CCC0081B04EF68850CEF20000016841F47001FC
:100CDC00016000BF00BF00BF00BFF1EE100A40F47E
:0A0CEC004000E1EE100A01B070476D
:100F0C0000B5DFF814B0DFF814A0DFF814C0FFF759
:100F1C0067FE00BD704700BF000000201E000020CF
:040F2C00EC0E0000C7
:100F8C0000B5DFF810B0DFF810A0FFF777FE00BD5A
:0C0F9C00704700BF000000203C00002057
:100DB000007000404000400501000000007000404D
:100DC000800040050100000000000000000000005D
:100DD0000000000000000000000000000000000013
:100DE0000000000000000000000000000000000003
:100DF00000000000000000000000000000000000F3
:100E000000000000000000000000000000000000E2
:100E100000000000000000000000000000000000D2
:100E200000000000000000000000000000000000C2
:100E300000000000000000000000000000000000B2
:100E400000000000000000000000000000000000A2
:100E50000000000000000000000000000000000092
:100E60000000000000000000000000000000000082
:100E70000000000000000000000000000000000072
:0C0E800000000000000000000200000064
:100E8C000000000000000000000000000000000056
:100E9C000000000000000000000000000000000046
:100EAC000000000000000000000000000000000036
:100EBC000000000000000000000000000000000026
:100ECC00000000000000000000000000D10600003F
:100EDC000000000000000000000000000000000006
:100EEC0054616D70657220636C69636B206973204B
:0E0EFC00696E204F4E2073746174650D0A00FC
:00000001FF
