:10000000F7EF00F00000000000EF00F0000000003B
:0A0010000000000000000000F3D71C
:0A001C00000EACB2010E006E1200DF
:1000260074CF01F071A202D07198718801C000F0FE
:020036001200B6
:0A003800000E9EBA010E006E1200C9
:0A004200000E81B0010E006E1200E6
:10004C00AECF01F0ABA202D0AB98AB8801C000F0F0
:02005C00120090
:0A005E00000E72B2010E006E1200D7
:0A006800000EA4BA010E006E120093
:10007200300E4B24006E000E4C20016E000E4D20FF
:10008200026E1C0E0024F66E000E0120F76E000EAA
:100092000220F86E0900F5CF3BF00900F5CF3CF0E5
:0E00A2000900F5CF3DF00900F5CF3EF0120049
:1000B000F250026EF29E0500FF6A0150FE6E005083
:0800C000FD6E02BEF28E12007B
:0E00C800ACB202D00000FCD74BC0ADFF12005E
:1000D60047C04BF048C04CF049C04DF0C7DF120096
:1000E600C80E336E000E346E4B0E356E000E366E35
:1000F6004C0E376E000E386E000E396E000E3A6EDC
:10010600380E436E000E446E000E456E000E466EAF
:100116001C0E3F6E000E406E000E416E000E426ECB
:10012600AC8A900EAB6E948E949C9EAA03D0AECFF2
:0601360000F0FBD71200EF
:10013C004A6A47C0E9FF48C0EAFFEECF49F0495090
:10014C00000A0DE049C04BF0B9DF4A2A4A50472457
:10015C00E96E000E4820EA6EEECF49F0F0D712009F
:0C016C003BC000F03CC001F09DDF120021
:100178009380B886060EB06E820EAF6EAC84AFDF89
:10018800090E0B6E1E0E0C6EE40E0D6E0D2EFED7B4
:0C0198000C2EFCD70B2EFAD70000120032
:1001A4000900F5CFE6FF0006FBE10106F9E11200C4
:1001B400DBDF005205E0150E476E000E486EBCDF13
:1001C400110E0B6E3C0E0C6ECB0E0D6E0D2EFED76B
:0A01D4000C2EFCD70B2EFAD71200F8
:1001DE00FC0E476E010E486E000E496E75DF120062
:0E01EE003DEC01F0C2DFF4DFDEDFFED7FFD70D
:10027A0010EE15F01E0E006E010E016E5C0EF66E8B
:0E028A00020EF76E000EF86ED2EC00F01200BD
:1001FC0000000000000000000000000000000000F3
:10020C0000000000000000000000000000000000E2
:10021C0000000000000000000000000000000000D2
:10022C0000000000000000000000000000000000C2
:10023C000000000000000000000000004200000070
:10024C0000000000000000000000000000000000A2
:10025C0054616D70657220636C69636B20697320E7
:0E026C00696E204F4E2073746174650D0A0098
:020000040030CA
:0D000100231F3CFFBF81FF0FC00FE00F4029
:00000001FF
